:060000000A128A110C280F
:10000800FE00030EF0000A08F1000A128A15292CD6
:100018000A128A110F280A128A153B230A128A111A
:10002800D2000A128A153C230A128A11D3000A1236
:100038008A153D230A128A11D4000A128A153E2312
:100048000A128A11D5000A128A153F230A128A1148
:10005800D600C901CA01CB01CC01CD01CE01CF0127
:10006800D001D101FB0183010A128A113B28FF301C
:100078008316031381008B018C01831203138C01F7
:1000880083160313890188018312031388018316D9
:10009800031306138312031306130A128A15702317
:1000A8000A128A110A128A11B6250A128A110A122C
:1000B8008A1561230A128A110A128A1554230A1210
:1000C8008A1131308312031390000B308F00DC301B
:1000D8008E00831603130C140B178B170A128A153C
:1000E800D6230A128A110930831203134E02031809
:1000F8007E287F2887284E08B500B6013508C0003D
:100108003608C1008B280830C0000030C100A501A6
:1001180000300A128A15BD230A128A110130FA002A
:100128000A128A15F1230A128A1183120313A501F0
:1001380001300A128A15BD230A128A111230FA00F8
:100148000A128A15F1230A128A1133308312031313
:10015800B700BB30B600DF30B500B50BB128B60B21
:10016800B128B70BB12801300A128A1593230A1255
:100178008A110D3083120313B600FB30B500B50B9E
:10018800C328B60BC3288312031350080319CD28BC
:10019800CE28C728D0010A128A113A250A128A11D4
:1001A80001300A128A15E3240A128A11730883128D
:1001B8000313BA007208B90002300A128A15E32440
:1001C8000A128A11730883120313BC007208BB0059
:1001D8003908F2003A08F300F401F5010030F9009B
:1001E8000030F8001330F7008830F6000A128A153C
:1001F8005E270A128A11720883120313B500730866
:10020800B6007408B7007508B8000A300310B80CB7
:10021800B70CB60CB50CFF3E031D0A293608C500FD
:100228003508C4000030A7000030A6000330A50040
:10023800FF30A4003B08F2003C08F300F401F5018C
:100248000030F9000030F8000030F7006430F600A4
:100258000A128A155E270A128A1175088312031377
:10026800AB007408AA007308A9007208A8000A1253
:100278008A1120260A128A11831203132508C7003F
:100288002408C60000304702653003194602031CE3
:100298004E294F2953296430C6000030C7008B13FC
:1002A8003D30F2004230F3000A128A11FD220A1290
:1002B8008A1183120313BF008B173F08031965299E
:1002C80066296829C80181290A30F2000030F30044
:1002D8004308F5004208F4000A128A153E260A125D
:1002E8008A11720883120313C80065304802031C80
:1002F8007E297F2981296430C800013045022D30CC
:1003080003194402031889298D2983120313061738
:100318009029831203130613A50100300A128A15C7
:10032800BD230A128A118312031355080A128A156B
:10033800C6250A128A113A300A128A1540230A126F
:100348008A118312031356080A128A15C6250A123F
:100358008A113A300A128A1540230A128A11831226
:10036800031351080A128A15C6250A128A11203069
:100378000A128A1540230A128A1154300A128A1561
:1003880040230A128A113A300A128A1540230A12A7
:100398008A11831203134508AD004408AC000A30E3
:1003A800AE000A128A1580260A128A1143300A12F0
:1003B8008A1540230A128A110F30FA000A128A1588
:1003C800F1230A128A1183120313A50101300A12BC
:1003D8008A15BD230A128A1148300A128A15402349
:1003E8000A128A113A300A128A1540230A128A110F
:1003F800831203134808B500B6013508A40036086F
:10040800A5000A128A15AA270A128A1125300A128B
:100418008A1540230A128A111030FA000A128A1526
:10042800F1230A128A114C300A128A1540230A1243
:100438008A113A300A128A1540230A128A11831245
:1004480003134708A5004608A4000A128A15AA271C
:100458000A128A1125300A128A1540230A128A11B3
:100468001030FA000A128A15F1230A128A11413053
:100478000A128A1540230A128A113A300A128A157A
:1004880040230A128A1183120313060EB500B50C15
:10049800350C0139B600B7013608A4003708A500A5
:1004A8000A128A15AA270A128A110F30FA000A12AC
:1004B8008A15F1230A128A118312031355080A12A6
:1004C8008A1502260A128A113A300A128A154A2314
:1004D8000A128A118312031356080A128A15022671
:1004E8000A128A113A300A128A154A230A128A1104
:1004F8008312031351080A128A1502260A128A1156
:100508002C300A128A154A230A128A1183120313FD
:100518004508A9004408A8000A30AA000A128A154A
:10052800C9260A128A112C300A128A154A230A127D
:100538008A11831203134808B500B6013508A000D4
:100548003608A1000A128A11A6270A128A112C302D
:100558000A128A154A230A128A11831203134708BA
:10056800A1004608A0000A128A11A6270A128A11B9
:100578002C300A128A154A230A128A11831203138D
:10058800060EB500B50C350C0139B600B7013608B2
:10059800A0003708A1000A128A11A6270A128A1198
:1005A8002330F3000A128A150D240A128A118312C5
:1005B80003135608A0005108A1005408A2005308CC
:1005C800A3005208A4004508A6004408A50048084E
:1005D800A7004608A8000030061B0130A9005508EE
:1005E8000A128A1136240A128A11C7280A128A1195
:1005F8000C282C3084000530FF0083138001840A06
:10060800FF0B012B83160313081183120313081120
:10061800753083120313A100E030A000A00B122B49
:10062800A10B122B0000831203130815313083121B
:100638000313A000A00B1E2B831603130815E83024
:1006480083120313B3000330B400081D2C2B2D2B89
:10065800392B0130B3020030031CB403B402330851
:100668003404031D382B392B292B33083404031D7C
:100678003E2B3F2B412B0130352CE830B3000330A3
:10068800B4000819482B492B552B0130B302003010
:10069800031CB403B40233083404031D542B552B34
:1006A800452B33083404031D5A2B5B2B5C2B3F2B43
:1006B800E830B3000330B400081D632B642B702BA3
:1006C8000130B3020030031CB403B402330834040D
:1006D800031D6F2B702B602B33083404031D752BFF
:1006E800762B772B3F2BB20132082C3E84008313E4
:1006F8008001B101E830B3000330B4000819852B3C
:10070800862B922B0130B3020030031CB403B402D1
:1007180033083404031D912B922B822B33083404A5
:10072800031D972B982B992B3F2B393083120313DA
:10073800A000A00B9D2B000083120313081DA52BFE
:10074800A62BD22B32082C3E84000130A0003108A1
:10075800073C013EB12B0310A00DFF3E031DAF2B3C
:10076800200883138004E830B3000330B400081D68
:10077800BE2BBF2BCB2B0130B3020030031CB403BC
:10078800B40233083404031DCA2BCB2BBB2B33080C
:100798003404031DD02BD12BD22B3F2B0130B107B2
:1007A80008303102031CD92BDA2B7E2B0130B2071B
:1007B80005303202031CE12BE22B782B2C082D0785
:1007C800A000A101A10D2E082007A20000300318E7
:1007D80001302107A3002F082207A40000300318C6
:1007E80001302307A500FF302405A60000302505A9
:1007F800A7003008A800A90127082906031D062C10
:10080800260828060319092C0A2C0C2C0230352C32
:10081800730884002D0883138000840A2C08800044
:100828002F08A000A1012E087F39A200A3012208E9
:10083800A300A20120082204AA0021082304AB0077
:10084800AE1F272C282C2D2CAA09AB09AA0A03199C
:10085800AB0A720884002A088000840A2B088000EA
:100868000030080083120313AC000A30F2004F086E
:100878000A128A1580230A128A11023E8312031370
:10088800AF002C08F7002F080A128A15A3240A12B1
:100898008A110D3083120313AB00FB30AA00AA0B98
:1008A800532CAB0B532C831203132008F7002F088B
:1008B800013E0A128A15A3240A128A110D308312E6
:1008C8000313AB00FB30AA00AA0B682CAB0B682CF7
:1008D800831203132108F7002F08023E0A128A1513
:1008E800A3240A128A110D3083120313AB00FB30C4
:1008F800AA00AA0B7D2CAB0B7D2C831203132208B4
:10090800F7002F08033E0A128A15A3240A128A1137
:100918000D3083120313AB00FB30AA00AA0B922CF4
:10092800AB0B922C831203132308F7002F08043E05
:100938000A128A15A3240A128A110D30831203138E
:10094800AB00FB30AA00AA0BA72CAB0BA72C831279
:1009580003132408F7002F08053E0A128A15A3245A
:100968000A128A110D3083120313AB00FB30AA0060
:10097800AA0BBC2CAB0BBC2C831203132508F70065
:100988002F08063E0A128A15A3240A128A110D306E
:1009980083120313AB00FB30AA00AA0BD12CAB0BBC
:1009A800D12C831203132608F7002F08073E0A12DA
:1009B8008A15A3240A128A110D3083120313AB007F
:1009C800FB30AA00AA0BE62CAB0BE62C8312031310
:1009D8002708F7002F08083E0A128A15A3240A12CE
:1009E8008A110D3083120313AB00FB30AA00AA0B47
:1009F800FB2CAB0BFB2C831203132908031D052DBD
:100A0800062D092DAD01AE010D2D8030AD00003051
:100A1800AE0028082D04F7002F08093E0A128A158F
:100A2800A3240A128A110D3083120313AB00FB3082
:100A3800AA00AA0B1D2DAB0B1D2D01308312031329
:100A4800CF0717304F02031C2A2D2B2D2C2DCF0139
:100A580017304E020318312D322D342D0130CE07B8
:100A68000A128A1505250A128A1108000A128A151F
:100A780065240A128A11D0300A128A15C2240A1271
:100A88008A1100300A128A15C2240A128A110A121F
:100A98008A1565240A128A11D1300A128A15C224CD
:100AA8000A128A1101300A128A1512270A128A11AB
:100AB8000A128A15A7230A128A1183120313D10076
:100AC80001300A128A1512270A128A110A128A1587
:100AD800A7230A128A1183120313D60001300A12BF
:100AE8008A1512270A128A110A128A15A7230A12CE
:100AF8008A1183120313D50001300A128A151227AE
:100B08000A128A1101300A128A1512270A128A114A
:100B18000A128A15A7230A128A1183120313D40012
:100B280001300A128A1512270A128A110A128A1526
:100B3800A7230A128A1183120313D30000300A1262
:100B48008A1512270A128A110A128A15A7230A126D
:100B58008A1183120313D2000A128A1584240A12F6
:100B68008A110800023083120313A7004530A6003B
:100B7800A930A500A50BBE2DA60BBE2DA70BBE2D1B
:100B8800F70130300A128A1558250A128A112130C5
:100B980083120313A6007530A500A50BD12DA60B53
:100BA800D12DD62DF70130300A128A1558250A1290
:100BB8008A11F93083120313A500A50BE12DF70163
:100BC80030300A128A1558250A128A11F930831210
:100BD8000313A500A50BEE2DF70120300A128A1584
:100BE80058250A128A11F93083120313A500A50BA0
:100BF800FB2D28300A128A1593230A128A110C3009
:100C08000A128A1593230A128A1106300A128A15C3
:100C180093230A128A1101300A128A1593230A12A1
:100C28008A110D3083120313A600FB30A500A50B13
:100C38001B2EA60B1B2E0800003083120313B000D6
:100C48000030AF000030AE000030AD0027082604A9
:100C5800250424040319312E322E7D2E0130B100D3
:100C6800402E0130AC000310A40DA50DA60DA70D54
:100C7800AC0B372E0130B107A71F432E442E352E5B
:100C88000130AC000310AD0DAE0DAF0DB00DAC0BC7
:100C9800462E27082B02031D5B2E26082A02031D59
:100CA8005B2E25082902031D5B2E24082802031C3D
:100CB8005E2E5F2E6E2E2408A8022508031C250F21
:100CC800A9022608031C260FAA022708031C270FBF
:100CD800AB022D1401300310A70CA60CA50CA40C14
:100CE800FF3E031D6F2E0130B102031D7C2E7D2EA9
:100CF800442E3008A7002F08A6002E08A5002D08AE
:100D0800A400080083120313A0002008A100F030FB
:100D1800A1052008F80003300310F80DFF3E031D5D
:100D2800902E0310780DA200F030A2057708031D5D
:100D38009E2EA02E0130A12E00300838A3000A12E2
:100D48008A1565240A128A114E300A128A15C2249D
:100D58000A128A11831203132108230404380A1281
:100D68008A15C2240A128A112930F800F80BBA2E03
:100D7800000083120313210823040A128A15C224CF
:100D88000A128A115330F800F80BC82E8312031385
:100D98002208230404380A128A15C2240A128A1166
:100DA8002930F800F80BD62E00008312031322080E
:100DB80023040A128A15C2240A128A115330F80031
:100DC800F80BE42E0A128A1584240A128A110800E4
:100DD800F701F31FF02EF12EF82EF209F309F20AAB
:100DE8000319F30A0130F700F51FFB2EFC2E032F21
:100DF800F409F509F40A0319F50A0130F706F801B0
:100E0800F9017208730403190A2F0B2F402F0130C0
:100E1800F600172F01300310F20DF30DFF3E031DEE
:100E28000F2F0130F607F31F1A2F1B2F0E2F01303B
:100E38000310F80DF90DFF3E031D1C2F73087502F2
:100E4800031D282F72087402031C2B2F2C2F332FFD
:100E58007208F4027308031CF503F50278140130D4
:100E68000310F30CF20CFF3E031D342F0130F60281
:100E7800031D3F2F402F1B2F77080319442F452FA1
:100E88004A2FF809F909F80A0319F90A7908F30049
:100E98007808F2000800F701F51F532F542F5B2F35
:100EA800F409F509F40A0319F50A0130F700F31FEC
:100EB8005E2F5F2F642FF209F309F20A0319F30A70
:100EC800720873040319692F6A2F972F0130F600EF
:100ED800762F01300310F20DF30DFF3E031D6E2F28
:100EE8000130F607F31F792F7A2F6D2F73087502DB
:100EF800031D802F72087402031C832F842F8A2FEE
:100F08007208F4027308031CF503F502013003109C
:100F1800F30CF20CFF3E031D8B2F0130F602031D6C
:100F2800962F972F7A2F770803199B2F9C2FA12F85
:100F3800F409F509F40A0319F50A7508F3007408A9
:100F4800F200080083120313A70120082104031DDF
:100F5800AE2FAF2FE12F30300A128A154A230A121A
:100F68008A11FB2F2708223E84000A30F200003045
:100F7800F3002108F5002008F4000A128A158E25CE
:100F88000A128A117208303E8313800001308312DE
:100F98000313A7070A30F2000030F3002108F50018
:100FA8002008F4000A128A153E260A128A117308CC
:100FB80083120313A1007208A00020082104031D56
:100FC800E62FE72FB62FF22F2708223E840083133F
:100FD80000080A128A154A230A128A11013083125C
:100FE8000313A702270A031DFA2FFB2FE82F080077
:1010000008308A000408840A8207003453346D349F
:101010006134723474342034573465346134743438
:10102000683465347234203420342034003453342E
:1010300074346134743469346F346E342034493418
:101040003234433420347634343420342034003481
:061050000D340A340034E7
:101676001A3405341C340E341E34F900F701F70A07
:1016860079080A128A1186260A128A150800F200BB
:10169600831203130C1E502B512B4B2B72089900EF
:1016A6000800831603130717871781309900243023
:1016B60098009030831203139800080083160313D2
:1016C6008514051580309F004130831203139F0057
:1016D6005330F200F20B6D2B0800831603138715A7
:1016E6000716803094002830831203139400831663
:1016F60003139101633093000800F400F301741C96
:10170600852B862B882B7208F3070310F20D031026
:10171600F40C7408031D902B912B822B7308080080
:1017260083120313A400F70124080A128A118626DD
:101736000A128A150D30FA00FB30F900F90BA12BBD
:10174600FA0BA12BA62B0800FA000F307A05F80039
:101756000A30F2007A08F90004300310F90CFF3E53
:10176600031DB02B79080A128A1580230A128A15DE
:101776007807080083120313A60026080319C42B52
:10178600C52BCA2BC030A7000030A800CE2B803056
:10179600A7000030A800250827070A128A159323F8
:1017A6000A128A15080000300A128A152C250A1218
:1017B6008A1583120313CF0001300A128A152C25CD
:1017C6000A128A1583120313CE0017304F02031C28
:1017D600ED2BEE2BF02BCF01CE010800002C7A0862
:1017E60084000A128A1500200A128A150A128A151E
:1017F60040230A128A150130FA077A0884000A1271
:101806008A1500200A128A15003A031D0B2C0C2C8F
:10181600F22B08001C2C730884000A128A1500207B
:101826000A128A150A128A154A230A128A150130E3
:10183600F307730884000A128A1500200A128A1513
:10184600003A031D272C282C0E2C080083120313A4
:101856000C1C2E2C2F2C3F2C0B308F00DC308E00D6
:101866000C100130FB0714307B02031C3B2C3C2C74
:101876003F2CFB010130D00071088A00700E8300F6
:10188600FE0E7E0E09008830F2001330F300831638
:10189600031311081F39031D512C522C562C141DED
:1018A600552C562C642C0130F2020030031CF30335
:1018B600F302720A031D632C730A031D632C642C46
:1018C6004A2C08000A128A1546240A128A1583161B
:1018D600031311148830F4001330F500111C742C16
:1018E600752C832C0130F4020030031CF503F5023D
:1018F600740A031D822C750A031D822C832C712CFD
:1019060008000A128A1546240A128A15831603133A
:1019160011158830F4001330F500111D932C942C0A
:10192600A22C0130F4020030031CF503F502740A00
:10193600031DA12C750A031DA12CA22C902C0800B6
:10194600F8000A128A1565240A128A15D0300A127E
:101956008A15C2240A128A157808143E0A128A15B4
:10196600C2240A128A1577080A128A15C2240A1294
:101976008A150A128A1584240A128A150800F400A8
:10198600F501F6010A128A1546240A128A158312EF
:1019960003138C11740893008C19D22CD32CE22CCF
:1019A6000130F5070318F60A0030F6071330760201
:1019B600883003197502031CE12CE22CCF2C080099
:1019C600F50075080739F40003300310F40DFF3EE7
:1019D600031DE82C831203131F08C73974049F00E4
:1019E6005330F400F40BF52C831203131F151F1943
:1019F600FD2CFE2CFA2C1E08F300831603131E087A
:101A0600F2000800831203134F08F70000300A1291
:101A16008A15A3240A128A152130FA007630F900B5
:101A2600F90B132DFA0B132D0000831203134E0826
:101A3600F70001300A128A15A3240A128A152130EA
:101A4600FA007630F900F90B262DFA0B262D000048
:101A56000800F8000A128A1565240A128A15D03081
:101A66000A128A15C2240A128A157808143E0A1226
:101A76008A15C2240A128A150A128A1565240A12C0
:101A86008A15D1300A128A15C2240A128A15003024
:101A96000A128A1512270A128A15F9000A128A15DD
:101AA60084240A128A1579080800F9007708031DAC
:101AB6005D2D5F2D0130602D0030F8007908F0397A
:101AC60078040838FA000A128A1565240A128A155B
:101AD6004E300A128A15C2240A128A157A08043868
:101AE6000A128A15C2240A128A152930F800F80B40
:101AF6007A2D00007A08FB390A128A15C2240A12C6
:101B06008A155330F800F80B862D0A128A1584249C
:101B16000A128A150800720873040319932D942D6E
:101B2600C12D0130F600A02D01300310F20DF30D8A
:101B3600FF3E031D982D0130F607F31FA32DA42D9C
:101B4600972D73087502031DAA2D72087402031CD3
:101B5600AD2DAE2DB42D7208F4027308031CF503E7
:101B6600F50201300310F30CF20CFF3E031DB52DF8
:101B76000130F602031DC02DC12DA42D7508F300FA
:101B86007408F2000800FA000A30F2000030F30090
:101B96007A0883120313AC00AD012C08F4002D085B
:101BA600F5000A128A11EC260A128A1573088312A6
:101BB6000313A5007208A4000A128A15AA270A129E
:101BC6008A150A30F2000030F3007A0883120313F4
:101BD600AC00AD012C08F4002D08F5000A128A119C
:101BE6004F270A128A15730883120313A500720879
:101BF600A4000A128A15AA270A128A150800FA00F2
:101C06000A30F2000030F3007A0883120313A800AA
:101C1600A9012808F4002908F5000A128A11EC2601
:101C26000A128A15730883120313A1007208A00012
:101C36000A128A11A6270A128A150A30F200003003
:101C4600F3007A0883120313A800A9012808F400F8
:101C56002908F5000A128A114F270A128A157308F5
:101C660083120313A1007208A0000A128A11A62784
:101C76000A128A150800F701F8017208730403199D
:101C8600452E462E7B2E0130F600522E01300310D3
:101C9600F20DF30DFF3E031D4A2E0130F607F31F2A
:101CA600552E562E492E01300310F70DF80DFF3E26
:101CB600031D572E73087502031D632E72087402E6
:101CC600031C662E672E6E2E7208F4027308031C20
:101CD600F503F502771401300310F30CF20CFF3E06
:101CE600031D6F2E0130F602031D7A2E7B2E562E13
:101CF6007808F3007708F2000800831203132E0811
:101D0600AF00B0012F08F2003008F3002D08F500EF
:101D16002C08F4000A128A153E260A128A15730840
:101D260083120313B2007208B1003208A50031080D
:101D3600A4000A128A15AA270A128A152E300A1238
:101D46008A1540230A128A15831203132E08AF0040
:101D5600B0012F08F2003008F3002D08F5002C081A
:101D6600F4000A128A158E250A128A157308831240
:101D76000313B4007208B3003408A5003308A400A6
:101D86000A128A15AA270A128A1508008312031353
:101D96002A08AB00AC012B08F2002C08F300290836
:101DA600F5002808F4000A128A153E260A128A153A
:101DB600730883120313AE007208AD002E08A1004B
:101DC6002D08A0000A128A11A6270A128A152E309B
:101DD6000A128A154A230A128A15831203132A083D
:101DE600AB00AC012B08F2002C08F3002908F50023
:101DF6002808F4000A128A158E250A128A15730815
:101E060083120313B0007208AF003008A1002F0838
:101E1600A0000A128A11A6270A128A150800F400E1
:101E26008830F6001330F7000A128A1546240A1283
:101E36008A158316031391151418222F232F312F79
:101E46000130F6020030031CF703F702760A031D81
:101E5600302F770A031D302F312F1F2F83120313C4
:101E66001308F5000A128A1546240A128A15740800
:101E760003193E2F422F831603139116452F8316FF
:101E86000313911211168830F6001330F700111E55
:101E96004D2F4E2F5C2F0130F6020030031CF70346
:101EA600F702760A031D5B2F770A031D5B2F5C2F53
:101EB6004A2F75080800003083120313A300003070
:101EC600A2000030A1000030A000721C6B2F6C2F06
:101ED600852F760883120313A007770803110318CA
:101EE600013E0319772FA107780803110318013E55
:101EF60003197E2FA207790803110318013E03195F
:101F0600852FA3070130FA000310F60DF70DF80D23
:101F1600F90DFA0B872F01300310F50CF40CF30CB6
:101F2600F20CFF3E031D8F2F7508740473047204B0
:101F3600031D9E2F9F2F682F831203132308F5007E
:101F46002208F4002108F3002008F200080083129A
:101F56000313AB0124082504031DB22FB32FE52F6D
:101F660030300A128A1540230A128A15FF2F2B08D1
:101F7600263E84000A30F2000030F3002508F50002
:101F86002408F4000A128A158E250A128A15720888
:101F9600303E83138000013083120313AB070A30EF
:101FA600F2000030F3002508F5002408F4000A12B8
:101FB6008A153E260A128A15730883120313A50092
:101FC6007208A40024082504031DEA2FEB2FBA2F5C
:101FD600F62F2B08263E8400831300080A128A1562
:101FE60040230A128A15013083120313AB022B0A0F
:0A1FF600031DFE2FFF2FEC2F080043
:02400E00723FFF
:00000001FF
